:020000040800F2
:1000000000280020D11D0008111B0008171B000844
:100010001D1B0008231B0008291B0008000000000E
:100020000000000000000000000000002F1B00087E
:100030003B1B000800000000471B0008531B000882
:10004000191E0008191E0008191E0008191E0008B4
:10005000191E0008191E0008191E0008191E0008A4
:10006000191E0008191E0008191E0008191E000894
:10007000191E0008191E0008191E0008191E000884
:10008000191E0008191E0008191E0008191E000874
:10009000191E0008191E0008191E0008191E000864
:1000A000191E0008191E0008191E0008191E000854
:1000B000611B0008191E000800000000191E00083E
:1000C000191E00080000000000000000191E0008B2
:1000D00000000000191E0008191E000800000000A2
:1000E000191E0008191E0008191E00080000000053
:1000F0000000000000000000000000000000000000
:0C01000000000000000000005FF808F1A3
:10010C0010B5054C237833B9044B13B10448AFF345
:10011C0000800123237010BDB800002000000000F7
:10012C00A436000808B5034B1BB103490348AFF3D1
:10013C00008008BD00000000BC000020A4360008B0
:10014C0080B500AF4FF48041024802F07AF900BF4D
:10015C0080BD00BF0008014080B500AF084B5B7844
:10016C00013BDAB2064B5A70064B5B78013BDAB2B4
:10017C00044B5A70002000F099FA00BF80BD00BFFC
:10018C00300000203800002080B500AF094B1B78F0
:10019C00622B06D8074B1B780133DAB2054B1A7069
:1001AC0002E0044B00221A70012000F07FFA00BF1D
:1001BC0080BD00BF1801002080B500AF094B1B7833
:1001CC00002B06D0074B1B78013BDAB2054B1A709B
:1001DC0002E0044B63221A70012000F067FA00BFA2
:1001EC0080BD00BF1801002080B500AF084B1B7804
:1001FC00032B02D9064B00221A70054B1B785A1C94
:10020C00D1B2034A1170184600F0AAF900BF80BDA4
:10021C00E000002080B582B000AF164B1B687B60FD
:10022C007B681B78022B18D0022B1FDC002B02D012
:10023C00012B09D01AE001210F4802F002F9082124
:10024C000D4802F0FEF811E002210B4802F0F9F81B
:10025C001021094802F0F5F808E00421064802F0E4
:10026C00F0F82021044802F0ECF800BF00BF08377A
:10027C00BD4680BD64010020000C014080B582B0F9
:10028C0000AF0AE00D4B1B687B600C4B1B681B69B5
:10029C000A4A1360786803F02BF9084B1B68002B93
:1002AC00F0D1074B00221A70064802F063FD064895
:1002BC0002F0E0F800BF0837BD4680BD14010020F5
:1002CC001A010020840100207801002080B582B042
:1002DC0000AF1A4B1B68002B2BD0184B1B685B68AC
:1002EC00002B05D0154B1B685A68013A5A6020E068
:1002FC00124B1B687B6018E07B6801221A737B68C9
:10030C009B68002B0ED00E4B1B78013BDAB20C4BCA
:10031C001A707B6818687B6899687B689B681A46BA
:10032C0000F010F87B681B697B607B685B68002BB6
:10033C00E2D000BF0837BD4680BD00BF14010020CD
:10034C002701002080B588B000AFF860B9607A60F2
:10035C00304B1B78132B03D92F4B02221A7056E00B
:10036C00142003F0BDF803467B617B69FA681A60C0
:10037C007B69BA685A607B697A689A60274B1B78EC
:10038C005A1CD1B2254A11707A6953737B690022C9
:10039C001A61234B1B68002B03D1214A7B69136024
:1003AC002FE01F4B1B68FB610BE07B695A68FB69F4
:1003BC005B68D21A7B695A60FB69BB61FB691B697C
:1003CC00FB61FB69002B05D0FB695A687B695B6894
:1003DC009A42EAD37B69FA691A61BB69002B03D193
:1003EC000F4A7B69136002E0BB697A691A61FB6989
:1003FC00002B06D0FB695A687B695B68D21AFB69D3
:10040C005A60044B1B780133DAB2024B1A70203756
:10041C00BD4680BD270100201A010020700100207C
:10042C001401002080B582B000AF184B1B68002B64
:10043C0025D01FE0154B1B681B689847134B1B6896
:10044C001A7B013AD2B21A73104B1B689B68002BB3
:10045C0005D10F4B1B78013BDAB20D4B1A700B4BCD
:10046C001B687B60094B1B681B69084A1360786822
:10047C0003F03EF8054B1B681B7B002BDAD100F018
:10048C004FF800BF0837BD4680BD00BF14010020E7
:10049C002701002080B584B000AF78601E4B1B682C
:1004AC00002B04D11D4B01221A70002330E01A4B93
:1004BC001B68FB60184B1B681B687A689A4223D137
:1004CC0072B600BF144B1B681B69134A1360F868A3
:1004DC0003F00EF862B600BF16E0FB681B691B68E0
:1004EC007A689A420DD172B600BFFB681B69BB607B
:1004FC00BB681A69FB681A61B86802F0F9FF62B64A
:10050C0000BFFB681B69FB60FB68002BE5D1012376
:10051C0018461037BD4680BD140100201A0100207A
:10052C0080B400AF30BF00BFBD4680BC7047000038
:10053C0080B582B000AF78607B681B68B3F1804FE8
:10054C0008D100F0BDFFFFF7C1FE044801F0D6FF53
:10055C0000F076FF00BF0837BD4680BD7801002053
:10056C0080B582B000AF0346FB71FB79032B11DC25
:10057C00002BC0F28F80032B00F28C8001A252F86A
:10058C0023F000BFA7050008DB0500080F060008D4
:10059C0043060008632B68D07CE0424B1B7818465E
:1005AC0000F018F9012208213F4801F032FF002227
:1005BC0010213D4801F02DFF002220213A4801F086
:1005CC0028FF00224021384801F023FF65E0354B1D
:1005DC005B78184600F0FEF800220821324801F042
:1005EC0018FF01221021304801F013FF00222021B6
:1005FC002D4801F00EFF002240212B4801F009FF8D
:10060C004BE0284B9B78184600F0E4F800220821B8
:10061C00254801F0FEFE00221021234801F0F9FECE
:10062C0001222021204801F0F4FE002240211E4826
:10063C0001F0EFFE31E01B4BDB78184600F0CAF8F6
:10064C0000220821184801F0E4FE0022102116486F
:10065C0001F0DFFE00222021134801F0DAFE012216
:10066C004021114801F0D5FE17E0002208210E4868
:10067C0001F0CFFE002210210B4801F0CAFE00222F
:10068C002021094801F0C5FE00224021064801F056
:10069C00C0FE02E00023FB7100BF00BF0837BD465F
:1006AC0080BD00BF1C0100200008014080B483B055
:1006BC0000AF0346FB71FB79002B3CD1404B5B78C0
:1006CC00404AA2FB0323DB08DAB23F4B1A703E4BC5
:1006DC001B78002B02D13C4B0A221A70384B5A78EB
:1006EC00384BA3FB0213D9080B469B000B445B0051
:1006FC00D31ADAB2344B5A70344B5B78314AA2FBC2
:10070C000323DB08DAB2304B9A702F4B9B78002B0B
:10071C0002D12D4B0A229A702C4B5A78294BA3FBF1
:10072C000213D9080B469B000B445B00D31ADAB2B8
:10073C00254BDA703EE0FB79012B3BD1244B1B7827
:10074C00204AA2FB0323DB08DAB21F4B1A701E4BA4
:10075C001B78002B02D11C4B0A221A701C4B1A78E6
:10076C00184BA3FB0213D9080B469B000B445B00F0
:10077C00D31ADAB2144B5A70154B5B78114AA2FBA0
:10078C000323DB08DAB2104B9A700F4B9B78002BCB
:10079C0002D10D4B0A229A700D4B5A78094BA3FBD0
:1007AC000213D9080B469B000B445B00D31ADAB238
:1007BC00054BDA7000BF0C37BD4680BC704700BFDC
:1007CC0030000020CDCCCCCC1C0100203800002007
:1007DC001801002080B582B000AF0346FB71FB7995
:1007EC000A2B00F28D8201A252F823F09708000820
:1007FC00090900087B090008ED090008690A0008CE
:10080C00DB0A00084D0B0008BF0B0008310C000878
:10081C00930C0008250800088E4B1B688E4A118823
:10082C000122184601F0F5FD8A4B5B688A4A518813
:10083C000122184601F0EDFD864B9B68864A918893
:10084C000122184601F0E5FD824BDB68824AD18813
:10085C000122184601F0DDFD7E4B1B697E4A118991
:10086C000122184601F0D5FD7A4B5B697A4A518911
:10087C000122184601F0CDFD764B9B69764A918991
:10088C000122184601F0C5FD73E2724B1B68724AD7
:10089C0011880022184601F0BCFD6E4B5B686E4A55
:1008AC0051880022184601F0B4FD6A4B9B686A4AD5
:1008BC0091880022184601F0ACFD664BDB68664A55
:1008CC00D1880022184601F0A4FD624B1B69624AD4
:1008DC0011890022184601F09CFD5E4B5B695E4A53
:1008EC0051890022184601F094FD5A4B9B695A4AD3
:1008FC0091890122184601F08CFD3AE2554B1B6898
:10090C00554A11880122184601F083FD514B5B6852
:10091C00514A51880022184601F07BFD4D4B9B68D3
:10092C004D4A91880022184601F073FD494BDB6853
:10093C00494AD1880122184601F06BFD454B1B69D1
:10094C00454A11890122184601F063FD414B5B6950
:10095C00414A51890122184601F05BFD3D4B9B69D0
:10096C003D4A91890122184601F053FD01E2394BB1
:10097C001B68394A11880022184601F04AFD354B94
:10098C005B68354A51880022184601F042FD314B14
:10099C009B68314A91880122184601F03AFD2D4B93
:1009AC00DB682D4AD1880022184601F032FD294B14
:1009BC001B69294A11890022184601F02AFD254B92
:1009CC005B69254A51890122184601F022FD214B11
:1009DC009B69214A91890022184601F01AFDC8E151
:1009EC001C4B1B681C4A11880022184601F011FD93
:1009FC00184B5B68184A51880022184601F009FD13
:100A0C00144B9B68144A91880022184601F001FD92
:100A1C00104BDB68104AD1880022184601F0F9FC13
:100A2C000C4B1B690C4A11890122184601F0F1FC90
:100A3C00084B5B69084A51890122184601F0E9FC10
:100A4C00044B9B69044A91890022184601F0E1FC91
:100A5C008FE100BF000000201C000020A64B1B688B
:100A6C00A64A11880122184601F0D3FCA24B5B6800
:100A7C00A24A51880022184601F0CBFC9E4B9B6881
:100A8C009E4A91880022184601F0C3FC9A4BDB6801
:100A9C009A4AD1880122184601F0BBFC964B1B697F
:100AAC00964A11890122184601F0B3FC924B5B69FE
:100ABC00924A51890022184601F0ABFC8E4B9B697F
:100ACC008E4A91890022184601F0A3FC51E18A4B11
:100ADC001B688A4A11880022184601F09AFC864B42
:100AEC005B68864A51880122184601F092FC824BC1
:100AFC009B68824A91880022184601F08AFC7E4B42
:100B0C00DB687E4AD1880022184601F082FC7A4BC1
:100B1C001B697A4A11890122184601F07AFC764B3E
:100B2C005B69764A51890022184601F072FC724BBF
:100B3C009B69724A91890022184601F06AFC18E1FF
:100B4C006D4B1B686D4A11880022184601F061FC40
:100B5C00694B5B68694A51880122184601F059FCBF
:100B6C00654B9B68654A91880022184601F051FC40
:100B7C00614BDB68614AD1880022184601F049FCC0
:100B8C005D4B1B695D4A11890022184601F041FC3E
:100B9C00594B5B69594A51890022184601F039FCBE
:100BAC00554B9B69554A91890022184601F031FC3E
:100BBC00DFE0514B1B68514A11880022184601F0A6
:100BCC0028FC4D4B5B684D4A51880022184601F0B9
:100BDC0020FC494B9B68494A91880022184601F039
:100BEC0018FC454BDB68454AD1880122184601F0B8
:100BFC0010FC414B1B69414A11890122184601F036
:100C0C0008FC3D4B5B693D4A51890122184601F0B5
:100C1C0000FC394B9B69394A91890122184601F035
:100C2C00F8FBA6E0344B5B68344A51880022184626
:100C3C0001F0EFFB304B9B68304A9188002218463C
:100C4C0001F0E7FB2C4BDB682C4AD18800221846BC
:100C5C0001F0DFFB284B1B69284A1189002218463A
:100C6C0001F0D7FB244B5B69244A518900221846BA
:100C7C0001F0CFFB204B9B69204A9189002218463A
:100C8C0001F0C7FB75E01C4B1B681C4A1188002245
:100C9C00184601F0BEFB184B5B68184A51880022BD
:100CAC00184601F0B6FB144B9B68144A918800223D
:100CBC00184601F0AEFB104BDB68104AD1880022BD
:100CCC00184601F0A6FB0C4B1B690C4A118901223A
:100CDC00184601F09EFB084B5B69084A51890022BB
:100CEC00184601F096FB044B9B69044A918900223B
:100CFC00184601F08EFB3CE0000000201C00002098
:100D0C001E4B1B681E4A11880022184601F081FBFD
:100D1C001A4B5B681A4A51880122184601F079FB7C
:100D2C00164B9B68164A91880122184601F071FBFC
:100D3C00124BDB68124AD1880022184601F069FB7D
:100D4C000E4B1B690E4A11890122184601F061FBFA
:100D5C000A4B5B690A4A51890122184601F059FB7A
:100D6C00064B9B69064A91890022184601F051FBFB
:100D7C0000BF00BF0837BD4680BD00BF000000208B
:100D8C001C00002080B500AF694B1B78032B00F2D0
:100D9C00C58001A252F823F0B50D00082D0E0008F5
:100DAC00810E0008D10E0008624B5B78012B08D134
:100DBC00614B01221A705E4B01221A7000F0B6FCD6
:100DCC00B4E05C4B9B78012B08D15B4B01221A7071
:100DDC00574B03221A7000F0A9FCA7E0574B9B78E5
:100DEC00012B08D1544B01221A70514B02221A705C
:100DFC0000F09CFC9AE0504B1B78002B07D064222F
:100E0C0064214F48FFF79EFA4B4B00221A704D4954
:100E1C004D4800F0E5FE4D494D4800F0E1FE85E0FF
:100E2C00444B5B78012B08D1434B01221A70404B89
:100E3C0000221A7000F07AFC78E03E4B9B78012B74
:100E4C0005D13B4B03221A7000F070FC6EE03A4B5C
:100E5C001B78002B05D03A48FFF71CFB364B0022C1
:100E6C001A703849384800F0BBFE3849384800F051
:100E7C00B7FE5BE0374B9B78022B17D12E4B1B78C0
:100E8C00002B0AD02E48FFF705FB322232212C48CA
:100E9C00FFF758FA284B00221A702A492A4800F00A
:100EAC009FFE2A492A4800F09BFE3FE02448FFF7AA
:100EBC00F1FA214B01221A701D4B00221A7000F01E
:100ECC0035FC33E01E48FFF7E5FA1E4B5A781F4BF2
:100EDC005B789A420BD91B4B5A781C4B5B78D31A14
:100EEC00DAB2184B5A70194B00225A700AE0174BA1
:100EFC005A78144B5B78D31ADAB2144B5A70114BE4
:100F0C0000225A700020FFF7D1FB0B4B00221A7005
:100F1C00074B01221A7000F009FC07E0044B002279
:100F2C001A7080210C4801F08CFA00BF00BF80BD04
:100F3C00D4000020300100202A00002024010020D1
:100F4C00650100083000002004010020380000205A
:100F5C004800002020010020000C014080B582B028
:100F6C0000AF78603960704B1B78042B00F2CF8097
:100F7C0001A252F823F000BF990F00085F1000087F
:100F8C0089100008BD100008E7100008674B5B785B
:100F9C00012B05D1644B01221A7000F0C7FBBAE09B
:100FAC00634B5B78012B08D1624B01221A705E4BAC
:100FBC0002221A7000F0BAFBADE05F4B5B78012B9C
:100FCC0005D1594B03221A7000F0B0FBA3E05B4B28
:100FDC005B78012B08D1574B01221A70524B04221B
:100FEC001A7000F0A3FB96E0504B9B78012B28D194
:100FFC00534B1B78002B00F08E80514B1A787B687A
:10100C001B789A420CD33B681A784D4B19787B6845
:10101C001B78CB1ADBB21344DAB23B681A700BE0C4
:10102C003B681A78464B19787B681B78CB1ADBB275
:10103C001344DAB23B681A70414B1A787B681A7009
:10104C0069E03C4B1B78002B65D03A4B00221A70A0
:10105C0061E03B4B1B78622B06D8394B1B78013374
:10106C00DAB2374B1A7002E0354B00221A700120AD
:10107C00FFF71CFB2C4B00221A7051E0314B5B78B4
:10108C00022B0CD12B4B1B78002B46D0192219218B
:10109C002D48FFF757F9274B00221A703DE02A48DC
:1010AC00FFF7F8F900F042FB1F4B00221A7034E0F6
:1010BC00234B1B78002B06D0214B1B78013BDAB25B
:1010CC001F4B1A7002E01E4B63221A700120FFF7AF
:1010DC00EDFA154B00221A7022E01A4B5B78042BA8
:1010EC000CD1144B1B78002B19D01922192117483D
:1010FC00FFF728F90F4B00221A7010E01348FFF786
:10110C00C9F900F013FB084B00221A7007E0064BDC
:10111C0000221A7004E000BF02E000BF00E000BF34
:10112C0000BF0837BD4680BDD5000020300100202F
:10113C00240100202B000020100100206001002061
:10114C00180100202001002095010008C5010008AD
:10115C0080B500AF012201210E4801F05AF901229D
:10116C0008210C4801F055F901220221094801F02F
:10117C0050F901221021074801F04BF901220421FA
:10118C00044801F046F901222021024801F041F9FE
:10119C0000BF80BD000C014080B400AFBFF34F8F87
:1011AC0000BF064BDB6803F4E0620449044B1343B5
:1011BC00CB60BFF34F8F00BF00BFFDE700ED00E039
:1011CC000400FA0580B582B000AF0346FB71794B81
:1011DC001B78012B02D1784B04221A70FB79032B5C
:1011EC0000F2D88001A252F823F000BF09120008C7
:1011FC005B120008CD120008371300086F4B1B78E8
:10120C00012B0BD16E4B01221A706E48FFF742F97D
:10121C00694B01221A7000F089FAC6E0684B1B7802
:10122C00002B11D0684B00221A70684B01221A70E7
:10123C00674B00225A70674B00225A70664B012292
:10124C001A705F4B00221A70FFF79CFDADE05B4BF0
:10125C001B78012B0BD15A4B01221A705F48FFF7F8
:10126C0019F9554B02221A7000F060FA9DE0544BAC
:10127C001B78002B1FD0FFF76BFF594B1B6800220C
:10128C001A70574B1B68574A13603222322153484D
:10129C00FFF758F88021544801F0D3F84C4B9A785A
:1012AC00524B1A70514B02225A700120FFF7FEF973
:1012BC00434B00221A704E494E48FFF74FFE74E024
:1012CC003E4B1B78012B0BD13D4B01221A7043482E
:1012DC00FFF7E0F8384B03221A7000F027FA64E0AD
:1012EC00374B1B78002B1BD0FFF732FF3C4B1B6896
:1012FC0001221A703A4B1B683A4A1360322232218F
:10130C003648FFF71FF8324BDA78384B1A70374BE8
:10131C0003225A700120FFF7C9F9294B00221A70D9
:10132C0035493648FFF71AFE3FE0244B1B78012B5A
:10133C000BD1234B01221A702848FFF7ABF81E4B38
:10134C0000221A7000F0F2F92FE01D4B1B78002BD5
:10135C001BD0FFF7FDFE224B1B6802221A70204B9C
:10136C001B68204A1360322232211C48FEF7EAFF28
:10137C00174B1A791D4B1A701C4B04225A70012002
:10138C00FFF794F90E4B00221A701B491C48FFF70B
:10139C00E5FD0AE01B4B1B78022B01D0FFF7FCFE8E
:1013AC008021114801F04DF800BF00BF0837BD4641
:1013BC0080BD00BF24010020E1000020300100208E
:1013CC002C000020650100080401002048000020CA
:1013DC0030000020380000202A00002021020008E4
:1013EC007401002064010020000C01401801002051
:1013FC003C000020320000203A0000203300002086
:10140C00340000202001002080B483B000AF78604D
:10141C00084B00221A607B68074A82FB0312921069
:10142C00DB17D31A054A136000BF0C37BD4680BCCE
:10143C00704700BFD800002067666666DC0000209D
:10144C0080B400AF074B1B68013B064A1360054B89
:10145C001B68002B02D1044B01221A6000BFBD4651
:10146C0080BC7047DC000020D800002080B582B022
:10147C0000AF0346FB71FB79022B12D0022B16DC5A
:10148C00002B02D0012B06D011E001210B4800F0FB
:10149C00A9FF03460DE00221084800F0A3FF034614
:1014AC0007E00421054800F09DFF034601E000BF62
:1014BC00012318460837BD4680BD00BF0008014017
:1014CC0090B583B000AF0023FB710EE1FA79FB7984
:1014DC008A49895C8A4AD154FC79FB791846FFF712
:1014EC00C5FF03461A46854B1A55FB79834AD25CD5
:1014FC00FB798349CB5C9A4205D1FA79FB797F4918
:10150C00895C804AD154FB797E4AD35C012B38D15B
:10151C00FB797D4AD35C052B03D1FB797A4A0021F8
:10152C00D154FB79784AD35C062B03D1FB79764AEC
:10153C000021D154FB79744AD35C012B03D1FB7984
:10154C00714A0221D154FB796F4AD35C032B03D12E
:10155C00FB796D4A0421D154FB796C4A002122F8A5
:10156C001310FB796A4A32F81330132B34D8FB79F9
:10157C00674A32F81320013291B2654A22F81310EF
:10158C002AE0FB795F4AD35C002B25D1FB795E4ABC
:10159C00D35C002B03D1FB795B4A0121D154FB793D
:1015AC00594AD35C022B03D1FB79574A0321D154FE
:1015BC00FB79574A002122F81310FB79534A32F871
:1015CC001330632B08D8FB79504A32F813200132C0
:1015DC0091B24E4A22F81310FB794B4AD35C002B84
:1015EC0003D1FB794B4A0021D154FB79464AD35C99
:1015FC00012B04D0FB79444AD35C052B11D1FB7928
:10160C00424A32F81330632B0BD9FB79424A012141
:10161C00D154FB793F4A0221D154FB793A4A052136
:10162C00D154FB79384AD35C022B11D1FB79384A5F
:10163C0032F81330132B0BD9FB79384A0121D154D2
:10164C00FB79344A0121D154FB792F4A0021D15422
:10165C00FB792D4AD35C032B04D0FB792A4AD35C4B
:10166C00062B11D1FB79294A32F81330632B0BD995
:10167C00FB792B4A0121D154FB79264A0421D15400
:10168C00FB79214A0621D154FB791F4AD35C042BE8
:10169C0011D1FB791E4A32F81330132B0BD9FB797D
:1016AC00204A0121D154FB791A4A0321D154FB79E8
:1016BC00154A0021D154FB79002B02D11A4B002280
:1016CC001A70FB790F4AD35C002B0CBF012300234B
:1016DC00DBB25AB2144B1B785BB213435BB2DAB277
:1016EC00114B1A70FB790133FB71FB79022B7FF6DE
:1016FC00EDAE00BF00BF0C37BD4690BDE40000202E
:10170C00E800002040000020FC000020EC0000203D
:10171C00F4000020200100202401002030010020D2
:10172C006001002010010020E200002080B500AF15
:10173C0003220021094801F0E3FE0322002108489E
:10174C0001F0DEFE03220021064801F0D9FE03223F
:10175C000021054801F0D4FE00BF80BD30010020FF
:10176C0024010020100100206001002080B500AF92
:10177C000A4B1B78012B05D100224FF4004108487D
:10178C0000F047FE054B1B78002B05D101224FF4CE
:10179C000041034800F03DFE00BF80BDE200002088
:1017AC000008014080B500AF00F032FB00F048F8B3
:1017BC0000F0ECF800F09EF800F082F8C820FFF77B
:1017CC0023FE01224021184800F023FE01224FF491
:1017DC008041164800F01DFE01228021124800F0C5
:1017EC0018FEFEF74BFD642214211148FEF7AAFDEA
:1017FC0014221E210F48FEF7A5FD0F4B1B68012B71
:10180C0007D14021084800F01CFE4FF47A70FFF716
:10181C00FBFDFFF7ABFFFEF705FE084B1B78DBB2B9
:10182C001846FFF7CFFCE8E7000C01400008014028
:10183C004D010008F5010008D8000020E10000204F
:10184C0080B590B000AF07F118032822002118468C
:10185C0001F056FE3B1D00221A605A609A60DA6055
:10186C001A610A23BB610123BB621023FB620123B3
:10187C003B6300237B6307F11803184600F04EFE10
:10188C000346002B01D000F0E1F80F237B6000230E
:10189C00BB600023FB604FF480633B614FF48063BB
:1018AC007B613B1D0021184601F0B8F80346002B64
:1018BC0001D000F0CBF800BF4037BD4680BD000022
:1018CC0080B500AF094B0A4A1A60084B00225A60D7
:1018DC00064B40F2DB529A60044800F0CBFD034605
:1018EC00002B01D000F0B2F800BF80BD78010020C1
:1018FC000030004080B586B000AF07F1080300222D
:10190C001A605A609A60DA603B4600221A605A608C
:10191C001D4B4FF080421A601B4B41F63F725A60D0
:10192C00194B00229A60184B0922DA60164B0022E0
:10193C001A61154B00229A61134801F0CBF903464A
:10194C00002B01D000F082F84FF48053BB6007F1FC
:10195C00080319460C4801F049FB0346002B01D043
:10196C0000F074F800233B6000237B603B46194673
:10197C00054801F021FD0346002B01D000F066F86C
:10198C0000BF1837BD4680BD8401002080B586B0ED
:10199C0000AF07F1080300221A605A609A60DA60FF
:1019AC00274B9B69264A43F004039361244B9B69A4
:1019BC0003F004037B607B68214B9B69204A43F056
:1019CC00080393611E4B9B6903F008033B603B6863
:1019DC0000224FF6F8711B4800F01BFD0022FF217E
:1019EC00194800F016FD0723BB600023FB600123A0
:1019FC003B6107F108031946124800F079FB4FF6DA
:101A0C00F873BB600123FB6000233B6102237B6105
:101A1C0007F1080319460B4800F06AFBFF23BB6073
:101A2C000123FB6000233B6102237B6107F1080368
:101A3C001946054800F05CFB00BF1837BD4680BD59
:101A4C000010024000080140000C014080B400AFBF
:101A5C0072B600BFFEE7000080B485B000AF154B36
:101A6C009B69144A43F001039361124B9B6903F089
:101A7C000103BB60BB680F4BDB690E4A43F080531C
:101A8C00D3610C4BDB6903F080537B607B680A4BA2
:101A9C005B68FB60FB6823F0E063FB60FB6843F072
:101AAC008063FB60044AFB68536000BF1437BD467B
:101ABC0080BC7047001002400000014080B584B02B
:101ACC0000AF78607B681B68B3F1804F13D10C4B6F
:101ADC00DB690B4A43F00103D361094BDB6903F06B
:101AEC000103FB60FB68002200211C2000F0C9FAF6
:101AFC001C2000F0E2FA00BF1037BD4680BD00BFCD
:101B0C000010024080B400AFFEE780B400AFFEE7E7
:101B1C0080B400AFFEE780B400AFFEE780B400AF46
:101B2C00FEE780B400AF00BFBD4680BC704780B4F8
:101B3C0000AF00BFBD4680BC704780B400AF00BF93
:101B4C00BD4680BC704780B500AF00F0A7F900BF60
:101B5C0080BD000080B500AF024801F057F900BF0E
:101B6C0080BD00BF8401002080B586B000AF7860D6
:101B7C00144A154BD31A7B617B693B61134B1B6871
:101B8C00002B02D1114B124A1A60104B1A687B6859
:101B9C0013443A699A4207D201F078FC03460C22AE
:101BAC001A604FF0FF3309E0084B1B68FB60074BD2
:101BBC001A687B681344054A1360FB68184618378B
:101BCC00BD4680BD0028002000040000000100205C
:101BDC00E001002080B400AF00BFBD4680BC704760
:101BEC0080B582B000AF786039607B681B78022BBF
:101BFC002ED0022B40DC002B02D0012B14D03BE06A
:101C0C003B685B78002B44D17B6802221A703B68DE
:101C1C001B78184600F0A6F83B681A793B685A7096
:101C2C000020FEF743FD34E03B685B78002B32D19B
:101C3C007B6800221A703B681B78184600F032F85B
:101C4C003B689A783B685A700020FEF72FFD22E023
:101C5C003B685B78002B20D17B6801221A703B68B3
:101C6C001B78184600F04EF83B68DA783B685A70DF
:101C7C000020FEF71BFD10E07B6800221A703B6809
:101C8C001B78184600F00EF83B689A783B685A703F
:101C9C0004E000BF02E000BF00E000BF00BF083757
:101CAC00BD4680BD80B582B000AF0346FB71FB79A9
:101CBC00002B0ED100220121114800F0AAFB0122B9
:101CCC0002210F4800F0A5FB012204210C4800F072
:101CDC00A0FBFB79012B0ED100220821084800F053
:101CEC0098FB01221021064800F093FB01222021D1
:101CFC00034800F08EFB00BF0837BD4680BD00BF17
:101D0C00000C014080B582B000AF0346FB71FB793B
:101D1C00002B0ED100220221114800F07AFB012287
:101D2C0004210F4800F075FB012201210C4800F042
:101D3C0070FBFB79012B0ED100221021084800F01A
:101D4C0068FB01222021064800F063FB01220821D8
:101D5C00034800F05EFB00BF0837BD4680BD00BFE6
:101D6C00000C014080B582B000AF0346FB71FB79DB
:101D7C00002B0ED100220421114800F04AFB012255
:101D8C0001210F4800F045FB012202210C4800F014
:101D9C0040FBFB79012B0ED100222021084800F0DA
:101DAC0038FB01220821064800F033FB01221021E8
:101DBC00034800F02EFB00BF0837BD4680BD00BFB6
:101DCC00000C0140FFF706FF0B480C490C4A00239E
:101DDC0002E0D458C4500433C4188C42F9D3094AD5
:101DEC00094C002301E013600432A242FBD301F042
:101DFC0053FBFFF7D7FC704700000020B800002011
:101E0C00E8360008B8000020E0010020FEE70000E2
:101E1C0080B500AF084B1B68074A43F010031360F2
:101E2C00032000F023F90F2000F008F8FFF714FE50
:101E3C000023184680BD00BF0020024080B582B050
:101E4C0000AF7860124B1A68124B1B7819464FF48E
:101E5C007A73B3FBF1F3B2FBF3F3184600F03BF9E2
:101E6C000346002B01D001230EE07B680F2B0AD810
:101E7C00002279684FF0FF3000F003F9064A7B68C6
:101E8C001360002300E0012318460837BD4680BDCF
:101E9C0044000020500000204C00002080B400AF13
:101EAC00054B1B781A46054B1B681344034A1360F9
:101EBC0000BFBD4680BC704750000020CC01002004
:101ECC0080B400AF024B1B681846BD4680BC7047FF
:101EDC00CC01002080B485B000AF78607B6803F043
:101EEC000703FB600C4BDB68BB60BA684FF6FF0363
:101EFC001340BB60FB681A02BB68134343F0BF631B
:101F0C0043F40033BB60044ABB68D36000BF143792
:101F1C00BD4680BC704700BF00ED00E080B400AF50
:101F2C00044BDB681B0A03F007031846BD4680BC54
:101F3C00704700BF00ED00E080B483B000AF0346F3
:101F4C00FB7197F90730002B0BDBFB7903F01F02B9
:101F5C00064997F907305B09012000FA02F241F8B3
:101F6C00232000BF0C37BD4680BC704700E100E069
:101F7C0080B483B000AF03463960FB7197F907302A
:101F8C00002B0ADB3B68DAB20C4997F907301201D7
:101F9C00D2B20B4483F800230AE03B68DAB208495A
:101FAC00FB7903F00F03043B1201D2B20B441A76F7
:101FBC0000BF0C37BD4680BC704700BF00E100E09D
:101FCC0000ED00E080B489B000AFF860B9607A60D1
:101FDC00FB6803F00703FB61FB69C3F10703042BE8
:101FEC0028BF0423BB61FB690433062B02D9FB69B0
:101FFC00033B00E000237B614FF0FF32BB6902FA28
:10200C0003F3DA43BB681A407B699A404FF0FF3107
:10201C007B6901FA03F3D9437B680B4013431846E1
:10202C002437BD4680BC704780B582B000AF786065
:10203C007B68013BB3F1807F01D301230FE00A4A97
:10204C007B68013B53600F214FF0FF30FFF790FF8F
:10205C00054B00229A60044B07221A600023184695
:10206C000837BD4680BD00BF10E000E080B582B0EF
:10207C0000AF78607868FFF72DFF00BF0837BD46CA
:10208C0080BD80B586B000AF0346B9607A60FB7343
:10209C0000237B61FFF742FF78617A68B968786941
:1020AC00FFF790FF024697F90F3011461846FFF7DD
:1020BC005FFF00BF1837BD4680BD80B582B000AF52
:1020CC000346FB7197F907301846FFF735FF00BF41
:1020DC000837BD4680BD80B582B000AF78607868A7
:1020EC00FFF7A2FF034618460837BD4680BD000027
:1020FC0080B48BB000AF7860396000237B62002322
:10210C003B6248E101227B6A02FA03F3FB613B6804
:10211C001B68FA691340BB61BA69FB699A4240F0CB
:10212C0037813B685B68A34A93425ED0A14A9342D5
:10213C0075D8A14A934258D09F4A93426FD89F4A70
:10214C00934252D09D4A934269D89D4A93424CD0B7
:10215C009B4A934263D89B4A934246D0994A9342F6
:10216C005DD8122B2AD8122B59D801A252F823F081
:10217C00F7210008D1210008E321000825220008DE
:10218C002B2200082B2200082B2200082B220008EF
:10219C002B2200082B2200082B2200082B220008DF
:1021AC002B2200082B2200082B2200082B220008CF
:1021BC002B220008D9210008ED210008824A934205
:1021CC0013D02CE03B68DB683B6229E03B68DB68A2
:1021DC0004333B6224E03B68DB6808333B621FE05E
:1021EC003B68DB680C333B621AE03B689B68002B56
:1021FC0002D104233B6213E03B689B68012B05D1A1
:10220C0008233B627B68FA691A6109E008233B6288
:10221C007B68FA695A6103E000233B6200E000BF6F
:10222C00BB69FF2B01D87B6801E07B6804337B61C1
:10223C00BB69FF2B02D87B6A9B0002E07B6A083BE0
:10224C009B003B617B691A680F213B6901FA03F320
:10225C00DB431A40396A3B6901FA03F31A437B6981
:10226C001A603B685B6803F08053002B00F0908091
:10227C00564B9B69554A43F001039361534B9B6941
:10228C0003F00103BB60BB68514A7B6A9B080233B5
:10229C0052F82330FB607B6A03F003039B000F2290
:1022AC0002FA03F3DB43FA681340FB607B68494A8C
:1022BC0093420DD07B68484A934207D07B68474ACB
:1022CC00934201D1022304E0032302E0012300E046
:1022DC0000237A6A02F0030292009340FA681343D7
:1022EC00FB603B497B6A9B080233FA6841F8232068
:1022FC003B685B6803F48013002B06D0384B9A685C
:10230C003749BB6913438B6006E0354B9A68BB6950
:10231C00DB43334913408B603B685B6803F4001369
:10232C00002B06D02E4BDA682D49BB691343CB60CA
:10233C0006E02B4BDA68BB69DB4329491340CB60C1
:10234C003B685B6803F40033002B06D0244B5A68BF
:10235C002349BB6913434B6006E0214B5A68BB69A8
:10236C00DB431F4913404B603B685B6803F48033CD
:10237C00002B06D01A4B1A681949BB6913430B6022
:10238C0006E0174B1A68BB69DB43154913400B6019
:10239C007B6A01337B623B681A687B6A22FA03F31F
:1023AC00002B7FF4AFAE00BF00BF2C37BD4680BC06
:1023BC00704700BF000032100000311000002210E6
:1023CC00000021100000121000001110001002403B
:1023DC000000014000080140000C014000100140C9
:1023EC000004014080B485B000AF78600B467B8060
:1023FC007B689A687B881340002B02D00123FB7307
:10240C0001E00023FB73FB7B18461437BD4680BCF0
:10241C00704780B483B000AF78600B467B80134666
:10242C007B707B78002B03D07A887B681A6103E081
:10243C007B881A047B681A6100BF0C37BD4680BCD0
:10244C00704780B485B000AF78600B467B807B68AA
:10245C00DB68FB607A88FB6813401A04FB68D9437D
:10246C007B880B401A437B681A6100BF1437BD464A
:10247C0080BC704780B584B000AF78607B68002B5F
:10248C0001D1012336E07B681B684CF6CC421A6004
:10249C007B681B6845F255521A607B681B687A682A
:1024AC0052685A607B681B687A6892689A60FFF77A
:1024BC0007FDF86011E0FFF703FD0246FB68D31A35
:1024CC0041F23C32934208D97B681B68DB6803F00D
:1024DC000303002B01D003230CE07B681B68DB6833
:1024EC0003F00303002BE6D17B681B684AF6AA2293
:1024FC001A60002318461037BD4680BD80B483B0E7
:10250C0000AF78607B681B684AF6AA221A60002329
:10251C0018460C37BD4680BC7047000080B586B0AD
:10252C0000AF78607B68002B01D101236CE27B68E3
:10253C001B6803F00103002B00F08780924B5B6853
:10254C0003F00C03042B0CD08F4B5B6803F00C03D3
:10255C00082B12D18C4B5B6803F48033B3F5803FAE
:10256C000BD1894B1B6803F40033002B6CD07B68B8
:10257C005B68002B68D1012346E27B685B68B3F58E
:10258C00803F06D1804B1B687F4A43F48033136035
:10259C002EE07B685B68002B0CD17B4B1B687A4A66
:1025AC0023F480331360784B1B68774A23F4802321
:1025BC0013601DE07B685B68B3F5A02F0CD1724BE8
:1025CC001B68714A43F4802313606F4B1B686E4A7F
:1025DC0043F4803313600BE06B4B1B686A4A23F4A3
:1025EC0080331360684B1B68674A23F480231360A5
:1025FC007B685B68002B13D0FFF762FC386108E046
:10260C00FFF75EFC02463B69D31A642B01D9032306
:10261C00FAE15D4B1B6803F40033002BF0D014E09F
:10262C00FFF74EFC386108E0FFF74AFC02463B69B5
:10263C00D31A642B01D90323E6E1534B1B6803F433
:10264C000033002BF0D100E000BF7B681B6803F067
:10265C000203002B63D04C4B5B6803F00C03002B84
:10266C000BD0494B5B6803F00C03082B1CD1464B79
:10267C005B6803F48033002B16D1434B1B6803F0CB
:10268C000203002B05D07B681B69012B01D00123B1
:10269C00BAE13D4B1B6823F0F8027B685B69DB00F9
:1026AC00394913430B603AE07B681B69002B20D03F
:1026BC00364B01221A60FFF703FC386108E0FFF784
:1026CC00FFFB02463B69D31A022B01D903239BE182
:1026DC002D4B1B6803F00203002BF0D02A4B1B6818
:1026EC0023F0F8027B685B69DB00274913430B601E
:1026FC0015E0264B00221A60FFF7E2FB386108E078
:10270C00FFF7DEFB02463B69D31A022B01D90323E8
:10271C007AE11D4B1B6803F00203002BF0D17B68A0
:10272C001B6803F00803002B3AD07B689B69002BD5
:10273C0019D0174B01221A60FFF7C2FB386108E071
:10274C00FFF7BEFB02463B69D31A022B01D90323C8
:10275C005AE10D4B5B6A03F00203002BF0D0012011
:10276C0000F09AFA1CE00A4B00221A60FFF7A8FB53
:10277C0038610FE0FFF7A4FB02463B69D31A022B2A
:10278C0008D9032340E100BF001002400000424280
:10279C00800442429E4B5B6A03F00203002BE9D19A
:1027AC007B681B6803F00403002B00F0A680002359
:1027BC00FB75974BDB6903F08053002B0DD1944BC9
:1027CC00DB69934A43F08053D361914BDB6903F08F
:1027DC008053BB60BB680123FB758E4B1B6803F4F5
:1027EC008073002B18D18B4B1B688A4A43F480737F
:1027FC001360FFF765FB386108E0FFF761FB0246E9
:10280C003B69D31A642B01D90323FDE0814B1B6870
:10281C0003F48073002BF0D07B68DB68012B06D1AE
:10282C007B4B1B6A7A4A43F0010313622DE07B68F1
:10283C00DB68002B0CD1764B1B6A754A23F0010325
:10284C001362734B1B6A724A23F0040313621CE07D
:10285C007B68DB68052B0CD16D4B1B6A6C4A43F013
:10286C00040313626A4B1B6A694A43F00103136247
:10287C000BE0674B1B6A664A23F001031362644B3F
:10288C001B6A634A23F0040313627B68DB68002B2A
:10289C0015D0FFF715FB38610AE0FFF711FB024674
:1028AC003B69D31A41F28832934201D90323ABE03E
:1028BC00574B1B6A03F00203002BEED014E0FFF71A
:1028CC00FFFA38610AE0FFF7FBFA02463B69D31ABC
:1028DC0041F28832934201D9032395E04C4B1B6A99
:1028EC0003F00203002BEED1FB7D012B05D1484BED
:1028FC00DB69474A23F08053D3617B68DB69002B8B
:10290C0000F08180424B5B6803F00C03082B61D014
:10291C007B68DB69022B46D13F4B00221A60FFF724
:10292C00CFFA386108E0FFF7CBFA02463B69D31ABD
:10293C00022B01D9032367E0354B1B6803F00073AE
:10294C00002BF0D17B681B6AB3F5803F08D1304B6C
:10295C005B6823F400327B689B682D4913434B6002
:10296C002B4B5B6823F474127B68196A7B685B6A77
:10297C000B43274913434B60274B01221A60FFF787
:10298C009FFA386108E0FFF79BFA02463B69D31ABD
:10299C00022B01D9032337E01D4B1B6803F0007396
:1029AC00002BF0D02FE01C4B00221A60FFF788FAA6
:1029BC00386108E0FFF784FA02463B69D31A022B10
:1029CC0001D9032320E0124B1B6803F00073002B8A
:1029DC00F0D118E07B68DB69012B01D1012313E0F6
:1029EC000B4B5B68FB60FB6803F480327B681B6AF3
:1029FC009A4206D1FB6803F470127B685B6A9A42B8
:102A0C0001D0012300E0002318461837BD4680BDD5
:102A1C0000100240007000406000424280B584B05B
:102A2C0000AF786039607B68002B01D10123D0E0C6
:102A3C006A4B1B6803F007033A689A4210D9674B3C
:102A4C001B6823F0070265493B6813430B60634B1B
:102A5C001B6803F007033A689A4201D00123B8E0DF
:102A6C007B681B6803F00203002B20D07B681B687B
:102A7C0003F00403002B05D0594B5B68584A43F410
:102A8C00E06353607B681B6803F00803002B05D0E0
:102A9C00534B5B68524A43F460535360504B5B6832
:102AAC0023F0F0027B689B684D4913434B607B68B5
:102ABC001B6803F00103002B40D07B685B68012B83
:102ACC0007D1474B1B6803F40033002B15D10123AE
:102ADC007FE07B685B68022B07D1414B1B6803F0DE
:102AEC000073002B09D1012373E03D4B1B6803F0ED
:102AFC000203002B01D101236BE0394B5B6823F0FF
:102B0C0003027B685B68364913434B60FFF7D8F9C7
:102B1C00F8600AE0FFF7D4F90246FB68D31A41F2D9
:102B2C008832934201D9032353E02D4B5B6803F0A9
:102B3C000C027B685B689B009A42EBD1274B1B68AD
:102B4C0003F007033A689A4210D2244B1B6823F017
:102B5C00070222493B6813430B60204B1B6803F0B0
:102B6C0007033A689A4201D0012332E07B681B6864
:102B7C0003F00403002B08D0194B5B6823F4E062CC
:102B8C007B68DB68164913434B607B681B6803F05A
:102B9C000803002B09D0124B5B6823F460527B684E
:102BAC001B69DB000E4913434B6000F021F8024611
:102BBC000B4B5B681B0903F00F030A49CB5C22FA31
:102BCC0003F3094A1360094B1B681846FFF736F9E3
:102BDC00002318461037BD4680BD00BF00200240C0
:102BEC0000100240BC360008440000204C000020BD
:102BFC0080B487B000AF0023FB600023BB600023D0
:102C0C007B6100237B6000233B611E4B5B68FB6098
:102C1C00FB6803F00C03042B02D0082B03D027E035
:102C2C00194B3B6127E0FB689B0C03F00F03174A21
:102C3C00D35C7B60FB6803F48033002B10D0114B0A
:102C4C005B685B0C03F00103114AD35CBB607B68CF
:102C5C000D4A02FB03F2BB68B2FBF3F37B6104E0A9
:102C6C007B680C4A02FB03F37B617B693B6102E0EE
:102C7C00054B3B6100BF3B6918461C37BD4680BC09
:102C8C00704700BF0010024000127A00CC360008DA
:102C9C00DC36000800093D0080B485B000AF7860D8
:102CAC000A4B1B680A4AA2FB03235B0A7A6802FBE5
:102CBC0003F3FB6000BFFB685A1EFA60002BF9D1CE
:102CCC0000BF00BF1437BD4680BC704744000020D5
:102CDC00D34D621080B582B000AF78607B68002B5A
:102CEC0001D1012341E07B6893F83D30DBB2002B2E
:102CFC0006D17B68002283F83C207868FEF7DEFE64
:102D0C007B68022283F83D207B681A687B68043359
:102D1C001946104600F056FA7B68012283F84620CB
:102D2C007B68012283F83E207B68012283F83F20D8
:102D3C007B68012283F840207B68012283F84120C4
:102D4C007B68012283F842207B68012283F84320B0
:102D5C007B68012283F844207B68012283F845209C
:102D6C007B68012283F83D20002318460837BD46B6
:102D7C0080BD000080B485B000AF78607B6893F8AC
:102D8C003D30DBB2012B01D0012335E07B68022200
:102D9C0083F83D207B681B68DA687B681B6842F00F
:102DAC000102DA607B681B68164A934209D07B6883
:102DBC001B68B3F1804F04D07B681B68124A9342A6
:102DCC0011D17B681B689B6803F00703FB60FB68F1
:102DDC00062B10D07B681B681A687B681B6842F056
:102DEC0001021A6007E07B681B681A687B681B6825
:102DFC0042F001021A60002318461437BD4680BC0D
:102E0C00704700BF002C01400004004080B584B026
:102E1C0000AF78607B681B68DB68FB607B681B68B5
:102E2C001B69BB60BB6803F00203002B20D0FB685E
:102E3C0003F00203002B1BD07B681B686FF00202AF
:102E4C001A617B6801221A777B681B689B6903F007
:102E5C000303002B03D0786800F098F905E078683C
:102E6C0000F08BF9786800F09AF97B6800221A77E9
:102E7C00BB6803F00403002B20D0FB6803F00403B1
:102E8C00002B1BD07B681B686FF004021A617B68F7
:102E9C0002221A777B681B689B6903F44073002B32
:102EAC0003D0786800F072F905E0786800F065F9F5
:102EBC00786800F074F97B6800221A77BB6803F01D
:102ECC000803002B20D0FB6803F00803002B1BD059
:102EDC007B681B686FF008021A617B6804221A7702
:102EEC007B681B68DB6903F00303002B03D0786855
:102EFC0000F04CF905E0786800F03FF9786800F0D4
:102F0C004EF97B6800221A77BB6803F01003002B84
:102F1C0020D0FB6803F01003002B1BD07B681B68D0
:102F2C006FF010021A617B6808221A777B681B68A5
:102F3C00DB6903F44073002B03D0786800F026F9AA
:102F4C0005E0786800F019F9786800F028F97B68DA
:102F5C0000221A77BB6803F00103002B0CD0FB682E
:102F6C0003F00103002B07D07B681B686FF0010294
:102F7C001A617868FDF7DCFABB6803F08003002B5C
:102F8C000CD0FB6803F08003002B07D07B681B6818
:102F9C006FF080021A61786800F06FFABB6803F07A
:102FAC004003002B0CD0FB6803F04003002B07D030
:102FBC007B681B686FF040021A61786800F0F8F8C3
:102FCC00BB6803F02003002B0CD0FB6803F020033C
:102FDC00002B07D07B681B686FF020021A617868A1
:102FEC0000F042FA00BF1037BD4680BD80B584B0FA
:102FFC0000AF786039600023FB737B6893F83C303A
:10300C00012B01D10223B4E07B68012283F83C2020
:10301C007B68022283F83D207B681B689B68BB6041
:10302C00BB6823F07703BB60BB6823F47F43BB60B2
:10303C007B681B68BA689A603B681B68B3F5005FD5
:10304C003ED0B3F5005F00F28780B3F5805F00F0EF
:10305C008680B3F5805F7FD8702B1AD0702B7BD80D
:10306C00602B50D0602B77D8502B3CD0502B73D882
:10307C00402B58D0402B6FD8302B64D0302B6BD8D2
:10308C00202B60D0202B67D8002B5CD0102B5AD073
:10309C0062E07B6818683B6899683B685A683B68D3
:1030AC00DB6800F06AF97B681B689B68BB60BB68D7
:1030BC0043F07703BB607B681B68BA689A604FE08B
:1030CC007B6818683B6899683B685A683B68DB68A2
:1030DC0000F053F97B681B689A687B681B6842F4A4
:1030EC0080429A603CE07B6818683B6859683B6892
:1030FC00DB681A4600F0CAF87B681B68502118463A
:10310C0000F021F92CE07B6818683B6859683B6833
:10311C00DB681A4600F0E8F87B681B6860211846EB
:10312C0000F011F91CE07B6818683B6859683B6833
:10313C00DB681A4600F0AAF87B681B684021184629
:10314C0000F001F90CE07B681A683B681B681946B3
:10315C00104600F0F8F803E00123FB7300E000BF19
:10316C007B68012283F83D207B68002283F83C2099
:10317C00FB7B18461037BD4680BD80B483B000AFD2
:10318C00786000BF0C37BD4680BC704780B483B0FC
:10319C0000AF786000BF0C37BD4680BC704780B470
:1031AC0083B000AF786000BF0C37BD4680BC704761
:1031BC0080B483B000AF786000BF0C37BD4680BCD4
:1031CC007047000080B485B000AF786039607B68D0
:1031DC001B68FB607B682B4A934207D07B68B3F17A
:1031EC00804F03D07B68284A934208D1FB6823F0B8
:1031FC007003FB603B685B68FA681343FB607B6899
:10320C00204A934207D07B68B3F1804F03D07B6890
:10321C001D4A934208D1FB6823F44073FB603B6862
:10322C00DB68FA681343FB60FB6823F080023B68A1
:10323C005B691343FB607B68FA681A603B689A68A9
:10324C007B68DA623B681A687B689A627B680D4A15
:10325C00934203D13B681A697B681A637B6801222D
:10326C005A617B681B6903F00103002B05D07B6856
:10327C001B6923F001027B681A6100BF1437BD463D
:10328C0080BC7047002C01400004004080B487B023
:10329C0000AFF860B9607A60FB681B6A7B61FB6801
:1032AC001B6A23F00102FB681A62FB689B693B6195
:1032BC003B6923F0F0033B617B681B013A691343C4
:1032CC003B617B6923F00A037B617A69BB6813431A
:1032DC007B61FB683A699A61FB687A691A6200BF84
:1032EC001C37BD4680BC704780B487B000AFF86017
:1032FC00B9607A60FB681B6A7B61FB681B6A23F010
:10330C001002FB681A62FB689B693B613B6923F402
:10331C0070433B617B681B033A6913433B617B69D8
:10332C0023F0A0037B61BB681B017A6913437B61AB
:10333C00FB683A699A61FB687A691A6200BF1C37AC
:10334C00BD4680BC704780B485B000AF78603960F2
:10335C007B689B68FB60FB6823F07003FB603A683A
:10336C00FB68134343F00703FB607B68FA689A60C1
:10337C0000BF1437BD4680BC704780B487B000AF27
:10338C00F860B9607A603B60FB689B687B617B6925
:10339C0023F47F437B613B681A027B681A43BB684A
:1033AC0013437A6913437B61FB687A699A6000BFA7
:1033BC001C37BD4680BC704780B485B000AF7860C8
:1033CC0039607B6893F83C30012B01D1022341E03A
:1033DC007B68012283F83C207B68022283F83D2025
:1033EC007B681B685B68FB607B681B689B68BB60C9
:1033FC00FB6823F07003FB603B681B68FA6813439F
:10340C00FB607B681B68FA685A607B681B68144A0F
:10341C00934209D07B681B68B3F1804F04D07B6862
:10342C001B68104A93420CD1BB6823F08003BB602D
:10343C003B685B68BA681343BB607B681B68BA68FF
:10344C009A607B68012283F83D207B68002283F818
:10345C003C20002318461437BD4680BC704700BF83
:10346C00002C01400004004080B483B000AF7860B1
:10347C0000BF0C37BD4680BC704780B483B000AF32
:10348C00786000BF0C37BD4680BC7047014B186894
:10349C00704700BF5400002070B500260C4D0D4C39
:1034AC00641BA410A64209D100F0F6F800260A4DC0
:1034BC000A4C641BA410A64205D170BD55F8043B00
:1034CC0098470136EEE755F8043B98470136F2E78A
:1034DC00E0360008E0360008E0360008E436000864
:1034EC00024B0146186800F05FB800BF5400002082
:1034FC00024B0146186800F00BB800BF54000020C6
:10350C0003460244934200D1704703F8011BF9E7CC
:10351C0038B50546002943D051F8043C0C1F002B4C
:10352C00B8BFE41800F0AAF81E4A1368104633B965
:10353C00636014602846BDE8384000F0A5B8A3428B
:10354C000AD921686218934201BF1A685B68521845
:10355C00226063600460EDE71A465B680BB1A3421E
:10356C00FAD911685018A0420BD1206801445018A8
:10357C0083421160DED118685B68014411605360AE
:10358C00D8E702D90C232B60D4E7206821188B4292
:10359C0001BF19685B680918216063605460C9E752
:1035AC0038BD00BF08010020F8B5CD1C25F003057F
:1035BC0008350C2D38BF0C25002D064601DBA94221
:1035CC0003D90C2333600020F8BD00F057F82149D3
:1035DC000A6814469CB9204F3B6823B921463046F3
:1035EC0000F03CF838602946304600F037F8431CB0
:1035FC0023D10C233046336000F046F8E3E7236810
:10360C005B1B17D40B2B03D923601C44256004E0EF
:10361C006368A2420CBF0B605360304600F034F874
:10362C0004F10B00231D20F00700C21ACCD01B1A8A
:10363C00A350C9E722466468CCE7C41C24F00304F9
:10364C00A042E3D0211A304600F008F80130DDD159
:10365C00CFE700BF080100200C01002038B5002383
:10366C00054D044608462B60FEF77EFA431C02D13A
:10367C002B6803B1236038BDD0010020014800F055
:10368C0009B800BFD8010020014800F004B800BF01
:10369C00D801002070477047F8B500BFF8BC08BCD3
:1036AC009E467047F8B500BFF8BC08BC9E467047F4
:1036BC0000000000000000000102030406070809D6
:1036CC0002030405060708090A0B0C0D0E0F101057
:0436DC0001020000E7
:0436E00031010008AC
:0436E4000D010008CC
:1036E80000080140000801400008014000080140AE
:1036F8000008014000080140000801408000000166
:103708000002000400080010002001010100000070
:10371800000004020400000001000601030000008C
:103728000101010000127A000100000010000000F1
:103738000100000058000020000000000000000008
:103748000000000000000000000000000000000071
:103758000000000000000000000000000000000061
:103768000000000000000000000000000000000051
:103778000000000000000000000000000000000041
:103788000000000000000000000000000000000031
:08379800000000000000000029
:0400000508001DD101
:00000001FF
